:100000000C94DA030C9412040C9412040C94120451
:100010000C9412040C9412040C9412040C94120408
:100020000C9412040C9412040C9425290C94F929B4
:100030000C943B240C9412040C9412040C9412049F
:100040000C9412040C9412040C9412040C941204D8
:100050000C9412040C94C2240C9412040C941204F8
:100060000C9412040C9412040C9412040C941204B8
:100070000C9412040C9412040C9412040C941204A8
:100080000C9412040C9412040C9412040C94120498
:100090000C9412040C9412040C9412040C94120488
:1000A0000C9412040C9412040C941204167C1E007E
:1000B0001F0020002100220023002400250026002C
:1000C00027002D002E0000002A002B250000140020
:1000D0001A000800150017001C0018000C00120080
:1000E00013002F00300031002152000004001600E0
:1000F000070009000A000B000D000E000F0033007E
:10010000340028000000E10000001D001B00060074
:1001100019000500110010003600370038000000FB
:10012000E5000000E00022520000E2002C00000088
:100130002C4100002C0000000000E60000002252CC
:10014000E40035003A003B003C003D003E003F002B
:1001500040004100420043004400450001004C00C3
:100160002B0000004B0052004E00010001004B002C
:100170004A0052004D004E000100010000002452D0
:100180000000500051004F000100010050015000DC
:1001900051004F004F0101001A010000E100010071
:1001A0000100010001000100010001000100010047
:1001B00001000100000000000100E000010000005B
:1001C000E2000100000024520000010000000100D4
:1001D000E60001002352E400007C3A003B003C00B2
:1001E0003D003E003F00400041004200430044000B
:1001F000450001004C000100000001005200010018
:100200000100010001000100520001000100010095
:100210000100000020780000500051004F00010054
:1002200001000100500051004F00010001000000DA
:1002300000000100010001000100010001000100B7
:10024000010001000100010001000000A800010000
:10025000BC0001000000E30001000000AE0000004F
:10026000010000000100E70001000100BB00007C6C
:100270000100010001000100010001000100010076
:100280000100010001000100010001000100000067
:100290000100010001000100010001000100010056
:1002A000010001000100010001003900000001000F
:1002B0000100010001000100010001000100010036
:1002C0000100010001000000010001000100010027
:1002D0000100010001000100010001000100010016
:1002E0000000010001000100010000000100010008
:1002F00000000100000001000000010001000100F9
:1003000001000100000000000000000000000000EB
:1003100000000000000000000000000000000000DD
:1003200000000000000000000000000000000000CD
:10033000000000004B000000000000000000000072
:1003400001000000000000000000000000000000AC
:100350004A004E004D0000000000000000000000B8
:10036000000000000000000000000000000000008D
:10037000000000000000000000000000000000007D
:10038000000000000000000001000000000000006C
:10039000000000000000000000000000000000005D
:1003A000000000000000000000000000000000004D
:1003B000000000000000000000000000000000003D
:1003C000000000000000000000000000000000002D
:1003D000000000000000000000000000000000001D
:1003E000000000000000000000000000000000000D
:1003F00000000000000000000000000000000000FD
:1004000000000000000000000000000000000000EC
:1004100000004B0000000000000000000000000091
:1004200000000000000000000000000000004E007E
:100430001E0F0500047F3F1F643214643214783CA1
:100440001E1E140A052223252628292A2C2D2F308A
:1004500032333536383A3B3D3E4042434547494AC0
:100460004C4E5051535557595A5C5E6062646668F1
:10047000696B6D6F71737577797B7D7F81838587FC
:10048000898A8C8E90929496989A9C9E9FA1A3A5FF
:10049000A7A8AAACAEAFB1B3B4B6B8B9BBBCBEBF27
:1004A000C1C2C3C5C6C7C9CACBCCCDCED0D1D2D2AA
:1004B000D3D4D5D6D7D7D8D9D9DADADBDBDBDCDCB5
:1004C000DCDCDCDDDDDDDDDCDCDCDCDCDBDBDBDA6D
:1004D000DAD9D9D8D7D7D6D5D4D3D2D2D1D0CECDD8
:1004E000CCCBCAC9C7C6C5C3C2C1BFBEBCBBB9B8E5
:1004F000B6B4B3B1AFAEACAAA8A7A5A3A19F9E9C6A
:100500009A98969492908E8C8A89878583817F7D34
:100510007B79777573716F6D6B6968666462605E15
:100520005C5A5957555351504E4C4A4947454342DE
:10053000403E3D3B3A3836353332302F2D2C2A2978
:100540002826252322FFAA7F554000010101010131
:10055000010101010202020202020202020303037C
:10056000030303030304040404040404050505054C
:10057000050606060606070707070708080808090C
:100580000909090A0A0A0B0B0B0C0C0C0D0D0D0EB8
:100590000E0E0F0F0F10101111111212131314144D
:1005A000151516161717181819191A1A1B1B1C1DC2
:1005B0001D1E1E1F2020212222232424252626271B
:1005C0002829292A2B2C2D2D2E2F3031323233344D
:1005D00035363738393A3B3C3D3E3F404142434453
:1005E00045464748494A4C4D4E4F50515354555635
:1005F00058595A5B5D5E5F616264656668696B6CE1
:100600006D6F7072737577787A7B7D7E808283855B
:1006100087888A8C8E8F91939596989A9C9EA0A29B
:10062000A3A5A7A9ABADAFB1B3B5B7BABCBEC0C2A5
:10063000C4C6C9CBCDCFD1D4D6D8DBDDDFE2E4E769
:10064000E9EBEEF0F3F5F8FAFDFF0A0344005A0077
:1006500036003000000010034B004200440046000A
:1006600061006E00730000000403090409023B00EE
:10067000020100A0FA0904000001030101000921A0
:10068000110100012244000705810308000109044B
:100690000100010300000009211101000122B60040
:1006A0000705820320000112010002000000085A21
:1006B00044602201000102000105010902A1018537
:1006C000020901A100050919012908150025019554
:1006D00008750181020501093009311581257F95D1
:1006E000027508810609381581257F9501750881F5
:1006F00006050C0A38021581257F950175088106CB
:10070000C0C005010980A101850319012AB70015A0
:100710000126B700950175108100C0050C0901A1E3
:1007200001850419012AA002150126A00295017570
:10073000108100C005010906A1018506050719E021
:1007400029E71500250195087501810205071900A3
:1007500029EF1500250195F07501810205081901A1
:100760002905950575019102950175039101C00553
:10077000010906A101050719E029E71500250195E2
:100780000875018102950175088101050719002985
:10079000FF150026FF009506750881000508190160
:1007A000290515002501950575019102950175032F
:1007B0009101C00011241FBECFEFDAE0DEBFCDBF34
:1007C00004B603FE18C08091A3039091A403A091E6
:1007D000A503B091A6038730904BA740B04B59F4C6
:1007E0001092A3031092A4031092A5031092A603E3
:1007F000E0E0F8E3099511E0A0E0B1E0ECEEFBE504
:1008000002C005900D92A03EB107D9F723E0A0EEFB
:10081000B1E001C01D92A33AB207E1F70E940914AA
:100820000C94A02D0C9400008630B8F46530A8F428
:100830004F3098F450E09FE0699F400D511D112406
:10084000FA019BE4899FE00DF11D1124EE0FFF1FBB
:10085000E455FF4F85919491089581E090E00895CB
:100860000E941404089581E008950E9433040895BD
:1008700081E008950E94330408950E943A04089587
:1008800008950E9440040895A6E0B0E0EAE4F4E090
:100890000C944C2C49835A839E833091E7018981C3
:1008A0009A8131111AC03E81332399F0222389F0B5
:1008B0000E946A0A182F682F89819A810E94460A2D
:1008C00069817A81812F0E946E112696E3E00C9453
:1008D000682C0E94580A182FF3CF0E946A0A698177
:1008E0007A81F1CFFC01262F408151816281738191
:1008F000848195810E9444040895CF93DF93EC0195
:1009000061E00E947204BE010E943504DF91CF9124
:100910000895CF93DF93EC0160E00E947204BE0162
:100920000E944104DF91CF91089581E008950E94D3
:1009300095040895CF93C82F0E941B098C2F0E9405
:1009400097042FEF84E39CE0215080409040E1F732
:1009500000C00000CF91089581E00E949A040E9497
:10096000E624089580E00E949A040E940A250895D2
:100970000F931F93CF93DF938C0161E00E94720469
:10098000EC01F801858181110E94831BB801CE0121
:100990000E943D04811106C080E0DF91CF911F913C
:1009A0000F910895B801CE010E94FC1C8823A1F389
:1009B000B801CE010E940B22882371F3B801CE0149
:1009C0000E94351E882341F3B801CE010E940B1E00
:1009D000882311F3B801CE010E94A21B8823E1F203
:1009E000F8018581882361F0C330FCE7DF07E9F077
:1009F00058F4C115ECE7DE07A9F0C130DC47B9F0C7
:100A0000C8010E943804C9CFCB358CE7D807A9F0BC
:100A1000CC35ECE7DE0771F0CA35DC4789F70E9478
:100A2000B10EEECF0E94AC04B7CF0E94B90E0E9467
:100A3000B204B2CF0E94A70EE3CF0E94B50EE0CF62
:100A40000E94172480E00E94DB1C0E9457050E9430
:100A5000E31908950E94281C0E945B050E94DA1A7F
:100A60000E941C240895089581E0089581FD02C02C
:100A70002A9A08952A980895CF93DF93D82F0E9439
:100A80003405C82F882319F08D2F0E9436058C2F2E
:100A9000DF91CF910895229A2A9A0895CF93C82F73
:100AA0000E9433058C2F0E943C05CF91089580E071
:100AB0000E944E0508950E9454220E944E050895FA
:100AC000CF930E945422C82F8091E2018C1779F0B5
:100AD000C093E2010E94A7246093E3017093E401B4
:100AE0008093E5019093E6018C2F0E944E05CF91F3
:100AF0000895ADE0B0E0EFE7F5E00C944D2C4887A9
:100B000059876A877B878C879D8791110E94B70DD3
:100B10001F8286E0FE013896DE01119601900D924B
:100B20008A95E1F78D8181110DC029813A814B8130
:100B30005C816D817E818F810E94010D2D96E2E0A6
:100B40000C94692CCE0101960E947D048111EDCF99
:100B5000F5CFFC012481213021F4808191810E9414
:100B60009C0A0895662329F00E94961F0E947B200C
:100B700008950E940220FACFCF93C82F8823C9F08E
:100B80008238C9F40E94612281FD13C089E30E946A
:100B900080230E944B0E2FEF87EE93E02150804080
:100BA0009040E1F700C0000089E30E9497230E9473
:100BB0004B0ECF9108958338A1F40E94612280FDED
:100BC000F8CF83E50E9480230E944B0E2FEF81EE29
:100BD00094E0215080409040E1F700C0000083E5A0
:100BE000E4CF8438A1F40E94612282FDE2CF87E441
:100BF0000E9480230E944B0E2FEF81EE94E0215043
:100C000080409040E1F700C0000087E4CECF8CEF39
:100C10008C0F813A70F48C2F0E94F722882329F0E0
:100C20008C2F0E9497230E944B0E8C2F0E948023B2
:100C3000BECF80E28C0F883048F4C77081E001C0DD
:100C4000880FCA95EAF70E949A0DB1CFEBE5EC0F39
:100C5000E33040F4F0E0EC59FE4F808190E00E94D8
:100C60008B22A7CFE8E5EC0FEB3150F4F0E0EE0F6C
:100C7000FF1FE25DFE4F808191810E94B02299CFDB
:100C800083E38C0F833108F094CF61E08C2F0E94B6
:100C9000B2058FCF882309F456C0823879F40E94B8
:100CA000612281FF50C089E30E9480230E944B0E85
:100CB00089E30E9497230E944B0E0895833859F4CC
:100CC0000E94612280FF3FC083E50E9480230E9432
:100CD0004B0E83E5EECF843859F40E94612282FFE7
:100CE00032C087E40E9480230E944B0E87E4E1CF4C
:100CF0009CEF980F913AE8F290E2980F983050F4F8
:100D0000877091E001C0990F8A95EAF7892F0E94B8
:100D1000A00DD1CF9BE5980F933028F490E080E0B0
:100D20000E948B22089598E5980F9B3128F490E05B
:100D300080E00E94B022089593E3980F933118F455
:100D400060E00E94B20508951F93CF93DF93182FA0
:100D5000EB010E94BC05209739F4812F0E944A06BE
:100D6000DF91CF911F9108958FE99FE00197F1F7EF
:100D700000C000002197EFCF70E060E0893311F4EC
:100D800060E570E00E94A4060895882321F00E9487
:100D90009A0D0E944B0E0895882321F00E94A00D09
:100DA0000E944B0E0895B0E0A0E0E9EDF6E00C944F
:100DB000462C6C01D62FC72FFC01158106810295A8
:100DC0000F700E94900DE82E8823F9F0E12E112378
:100DD000E1F08C2F807F803461F080E28D0F8830CD
:100DE00008F18C2F807E803221F4D230D8F000239D
:100DF000C9F08091440382FF15C082E00E947B0EFF
:100E00000E94900D91E0E82EE926BC2EB2949FE05E
:100E1000B922FBE0FB15B8F1EB2DF0E0EE55F24DF9
:100E20000C94062CE12CF1CF0C2F0F70C07F11F029
:100E30000295007F112399F0002359F080E28D0F75
:100E4000883010F0D11107C0802F0E949A0D0E94A7
:100E50004B0E8D2F5AC0802F0E94AA0DF8CF8D2FD8
:100E60000E944A06002379F080E28D0F883010F04E
:100E7000D11104C0802F0E94A00D03C0802F0E94BA
:100E8000B00D0E944B0EEB2DE850FF0B349720F471
:100E90000E9454220E944E05EE2089F00E948C0D83
:100EA00080FD0DC0F60115820E94860D0E94A409E6
:100EB000C6010E94E2080E94860D0E94B409CDB7C7
:100EC000DEB7E9E00C94622C2C2F2F70F22EC07F3D
:100ED000C03219F0F29480EFF822DD2341F0D130D6
:100EE000D1F1112309F444C00023F1F0B2CF809175
:100EF000440382FD15C0112359F0FF2029F08F2DE6
:100F00000E949A0D0E944B0E80E00E94BC05BBCF50
:100F100080E00E944A06FF2009F4B5CF8F2DABCFA9
:100F2000112369F0011104C08F2D0E94C506ABCFBB
:100F3000013009F0A8CF8F2D0E94CE0DA4CF011152
:100F4000A2CF8F2D0E94CC068F2D0E94DA0D8F2DFF
:100F50000E94BE0D98CF112321F0063008F093CFE8
:100F6000E3CF053008F08FCF8F2D0E94CC068BCFBA
:100F70000023D1F3D93349F43FEF87EE93E03150AA
:100F800080409040E1F700C000008D2F0E944A068B
:100F90007ACF8C2F86958695837069F0813009F021
:100FA00072CF8D2F9C2F9370111102C080E090E0C2
:100FB0000E94B02268CF8D2F9C2F9370111102C018
:100FC00080E090E00E948B225ECF612F8D2F0E94E7
:100FD000B20559CF8C2F8370A1F5111154CF4D2F2D
:100FE000429546954770440F440F2D2F2F7030E0E7
:100FF000042E02C0220F331F0A94E2F790E080E033
:10100000D4FF09C08FE090E002C0880F991F4A9575
:10101000E2F780959095C695C695C370822B932B69
:10102000C23049F058F4C13019F00E9474092BCF36
:101030000E946B0928CF0E947D0925CF0E94680974
:1010400022CF8695112311F08C2F8170882309F40B
:101050001ACF4D2F429546954770440F440F2D2FC0
:101060002F7030E0042E02C0220F331F0A94E2F7E3
:1010700090E080E0D4FF09C08FE090E002C0880FCC
:10108000991F4A95E2F780959095C695C695C370CD
:10109000822B932BC23049F058F4C13019F00E94D2
:1010A000DF09F1CE0E94D609EECE0E94E809EBCE10
:1010B0000E948C09E8CECF70112329F08C2F0E945A
:1010C000A4098D2F32CF8D2F0E94CC068C2F0E9429
:1010D000B409D9CED23F41F160F4D03FB9F0D13F4D
:1010E00081F0112309F446C00111B3CE8C2F8F710A
:1010F0001FC0D33F01F1D43FA1F78091440382FD8B
:1011000024C08C2F8F71112311F312C0112341F0D1
:10111000053008F0B8CE8C2F8F710E94C609B3CE6F
:10112000063008F0B0CEF7CF8C2F8F711111CFCFD2
:101130000E94A409A8CE112329F08C2F8F710E9440
:101140009809A1CE0E9493099ECE112349F0CF7138
:101150008C2F0E94A40963E08C2F0E945D0E93CE19
:1011600081E00E947B0E023008F48DCE82E00E9466
:101170007B0E89CE002359F0D93309F006CFEFEF6B
:10118000F7EE23E0E150F0402040E1F7FCCE8C2F59
:101190008F719DCF0F931F93CF93DF93EC016881E5
:1011A00079818D810E94A70A8C010E94F1090E9419
:1011B0006709B801CE010E94D306DF91CF911F913C
:1011C0000F910895CF93DF93EC018C81882399F0E0
:1011D000CE010E94B804811111C00E94900D882395
:1011E00051F08D81882339F08091440382FF03C040
:1011F00082E00E947B0EDF91CF910895CE010E9484
:10120000CA08CE010E948904F6CF90E080E00E94D7
:101210008B2290E080E00E94B0220E94B70D0E94D5
:101220004B0E0E9497200E947B2008950E94AE23BF
:101230000E94050908950E94A70D0E9416090895AD
:1012400092959F70963091F058F4925F9F70923013
:1012500058F4803F19F030F4883E30F481E008956E
:101260009A5FF4CF843FD1F380E00895883EB0F3D5
:10127000813FD1F7F3CFFC012481222339F0808113
:1012800091810E949C0A0E942009089580E008959F
:10129000A6E0B0E0EEE4F9E00C944D2C2696E2E0F6
:1012A0000C94692CA7E0B0E0E8E5F9E00C944D2C33
:1012B0002796E2E00C94692C08950E945C09089539
:1012C0000E945D099093130280931202089508957D
:1012D0000E94600908952091120230911302822B1E
:1012E000932B0E94600908952091120230911302FD
:1012F000822393230E946009089520911202309165
:101300001302822793270E94600908950E945C09B6
:1013100008950E94860908950E94890990931102F8
:1013200080931002089590E080E00E948C09089557
:1013300021E030E0A90102C0440F551F8A95E2F771
:10134000CA010E948C09089521E030E002C0220FFA
:10135000331F8A95E2F78091100290911102822B3F
:10136000932B0E948C09089521E030E002C0220FE7
:10137000331F8A95E2F72095309580911002909165
:101380001102822393230E948C09089521E030E00A
:1013900002C0220F331F8A95E2F7809110029091CC
:1013A0001102822793270E948C0908952091100230
:1013B00030911102822B932B0E948C090895209169
:1013C000100230911102822393230E948C09089508
:1013D0002091100230911102822793270E948C09DC
:1013E00008950895262F277091E001C0990F2A953E
:1013F000EAF723E0769567952A95E1F7660F771F60
:10140000660F771FFA01E60FF71F50E040E0682FE4
:1014100070E08191DF0111979B01042E02C0369587
:1014200027950A94E2F72170219528272923282758
:101430002C934F5F5F4F4430510559F70895A82F03
:10144000A77023E0969587952A95E1F7880F991F55
:10145000880F991FFB01E80FF91F50E040E080E082
:10146000219130E00A2E02C0369527950A94E2F7C2
:1014700021703327042E01C0220F0A94EAF7822B31
:101480004F5F5F4F4430510559F70895262F95302F
:1014900070F48F3060F4682F70E08FE0989F600DDB
:1014A000711D112448EE51E0822F0E94F209089527
:1014B000292F953068F48F3058F490E068EE71E091
:1014C0003FE0239F800D911D11240E941F0A089563
:1014D00080E00895B0E0A0E0E0E7FAE00C94462C4C
:1014E0007C010091100210911102809112029091E2
:1014F0001302082B192BCFE0D0E0CC24C394D12CBD
:10150000BC2EC6010C2E02C0880F991F0A94E2F768
:1015100080239123892B49F4219790F7B12C8B2DAF
:10152000CDB7DEB7E9E00C94622CB7018C2F0E9496
:101530007A11019789F3F3CFCF93DF93EC010E94E7
:101540006A0ABE010E947A11DF91CF9108951F931C
:10155000CF93DF93EB019091E701992339F0CB0111
:101560000E949C0ADF91CF911F910895882369F012
:10157000CB010E946A0A182F682FCE010E94460AEA
:10158000BE01812F0E947A11EDCFCB010E94580A33
:10159000182FF6CF1F93CF93DF93C091140217E05B
:1015A000809115028C1304C0DF91CF911F91089593
:1015B000D0E01C9FF0011D9FF00D1124EA5EFD4F4D
:1015C00020813181428153816481758186810E94AD
:1015D00052092196C770E4CF20914E0230914F02FC
:1015E0004091500250915102609152027091530209
:1015F000809154020E9452090895CF93DF93809105
:101600005402807F09F04DC080915302882309F471
:1016100048C0E091140250911502C0914F02D09140
:101620004E02609150027091510247E05E17C9F17D
:101630008E2F90E0E49FF0011124EA5EFD4F24819B
:10164000222391F1489FF001499FF00D1124DF0101
:10165000AA5EBD4F11962C9111972C1325C02C9189
:101660002D1322C015962C91159721111DC012968D
:101670002D913C91261B370B283C3105A8F4809115
:1016800054028F70806180935402E45EFD4F80812C
:101690008F70806180838EE492E00E94E2080E9455
:1016A000CA0ADF91CF910895FC013196E770BECF51
:1016B000482F209114029091150257E0291302C07F
:1016C00080E0089530E0529FF001539FF00D112407
:1016D000EA5EFD4F8181681306C08081481303C014
:1016E00085818111EECF2F5F3F4F2770E7CFA4E1B7
:1016F000B0E0EDE7FBE00C94432C8C0186E0F801B0
:10170000DE011F9601900D928A95E1F7F801848120
:10171000E5809EE4A92E92E0B92E9091520291119B
:101720001FC08823D1F0EE20A9F0C8010E943B0918
:10173000F82E882379F087E0F801D50101900D9209
:101740008A95E1F7C5010E94A9050E94FD0A0E9441
:10175000EC0A5FC0C8010E94E208FF24F39459C05C
:10176000C080D18082809380F090530220915002FB
:1017700030915102A401421B530BFF2009F4F9C020
:10178000483C510508F0A7C0882309F442C0909155
:101790004F0280915402282F207F09F05CC09D11D8
:1017A00016C090914E02C91212C0E1104EC08F7047
:1017B0008061809354020E94EC0A8EE492E00E94C1
:1017C000E20880915402F8018683F12C22C0E110D6
:1017D0003CC06D2D8C2D0E94580B6D2D8C2D0E94C0
:1017E000580BE82E8111F1CFCF86D88A8F85988942
:1017F0000E949C0A292F22952F70243078F49F7024
:101800002230A8F09923B9F0F8019681907F99F4DD
:10181000FE2C8F2D6496ECE00C945F2C2A5F2F70C9
:10182000223068F0C8010E94E208EF2CF1CF992322
:1018300011F0882369F3805E883050F3F3CF803F46
:1018400038F3815F833070F7E3CF80915402816079
:1018500080935402BACF9D1113C090914E02C912C9
:101860000FC0E1100DC08683C8010E94E20887E026
:10187000F801AEE4B2E001900D928A95E1F767CFEE
:10188000C8010E943B09882309F464CFEE2009F4C3
:1018900061CF80915402803288F020914E023091C5
:1018A0004F02398728879B868A86909152029C87AF
:1018B0001D868E87CE0108960E94E20887E0F80117
:1018C000AEE4B2E001900D928A95E1F70E94FD0A24
:1018D0000E94EC0A42CF90915402292F207FA1F45C
:1018E000682D9A8A898AA6017A899E2D0E944809C4
:1018F0008EE492E00E94E20887E0F50111928A9559
:10190000E9F70E94EC0A61CF882309F482CF809125
:101910004F028D1110C080914E02C8120CC0E11010
:101920000AC09683C8010E94E20887E0F50111927F
:101930008A95E9F76ECFC8010E943B09882309F414
:1019400009CFEE2009F406CF80915402803208F4CA
:10195000B5CF20914E0230914F023A8329839C8269
:101960008B82909152029D831E828F83CE010196BD
:10197000A3CF483C5105B8F5882309F4EECEFE2CE0
:10198000EE2009F4E7CE80914F028D111EC08091A8
:101990004E02C8121AC08091540280FD0DC0982FCB
:1019A000907F51F08683903F09F45ECF982F907F0F
:1019B000905F8F70892B57CF87E0F801AEE4B2E0DB
:1019C00001900D928A95E1F724CFC8010E943B094E
:1019D000811174CF80915402816080935402C801B8
:1019E0000E94E20816CF682D9A8A898AA6017A8910
:1019F0009E2D0E94480987E0F50111928A95E9F72A
:101A0000A6CEAEE0B0E0E7E0FDE00C944C2C2887D9
:101A100039874A875B876C877D878E87CE010896DA
:101A20000E94770B8823B1F06C85662341F02885EE
:101A300039854A855B857D858E850E94520917E030
:101A4000809114029091150289133DC02E96E3E017
:101A50000C94682C87E0FE013896DE011196019007
:101A60000D928A95E1F78C85882349F32091150220
:101A700030E0C901019687709927409114024817F8
:101A8000190699F097E0929FD001939FB00D112411
:101A9000AA5EBD4FFE01319601900D929A95E1F735
:101AA000809315020E94CA0ACACF0E941B09109295
:101AB00015021092140287E0EEE4F2E0DF011D92BD
:101AC0008A95E9F7BCCF819FC00111248A5E9D4FA2
:101AD0000E94770B882309F4B9CFE09114021E9F6E
:101AE000F0011124EA5EFD4F208131814281538152
:101AF0006481758186810E9452098091140290E070
:101B0000019687709927809314029ACF80917D0265
:101B1000869586958695089580917D0287700895B3
:101B200090917D02977081E009F480E008958091A2
:101B3000A90208959091A902892B8093A902089582
:101B400080959091A90298239093A90208951092EC
:101B5000A90208959091A802892B8093A802089564
:101B600080959091A80298239093A80208951092CE
:101B7000A802089508950E94BA0D089590917E02DA
:101B8000292F282331F08095892380937E020E949B
:101B9000BB0D089508950E94CA0D089590917F028B
:101BA000292F2823281729F0982B90937F020E9431
:101BB000CB0D089590917F02292F282331F0809535
:101BC000892380937F020E94CB0D089580917F022C
:101BD000882329F010927F0280E00E94CB0D0895A7
:101BE000CF93C091A9028091A802C82B80917F0257
:101BF000882331F0C82B0E94D52281110E94E60D66
:101C00008C2FCF910895CF93DF93C0910601D0918F
:101C100007010E94F00D8883C0910601D091070151
:101C200048E050E065E772E0CE010E94132D892B59
:101C300059F088E0FE01A5E7B2E001900D928A9587
:101C4000E1F7CE010E946422DF91CF910895CF93F6
:101C5000DF93C0910401D09105010E94F00D8983AA
:101C6000C0910401D091050140E250E065E572E0C9
:101C7000CE010E94132D892B59F080E2FE01A5E5CB
:101C8000B2E001900D928A95E1F7CE010E946F2299
:101C9000DF91CF91089580912D01882339F08091B3
:101CA000430387FF03C00E94270E08950E94030E7E
:101CB000089508950E94590E08959091440392FF4B
:101CC00011C098E0899F90011124622B60937D02DE
:101CD0000E94A40980917D028695869586950E9432
:101CE0005A0E08950E94A409089510927D0280E082
:101CF0000E945A0E089590917D02809589238093C9
:101D00007D02282F277069F4891759F090914403B8
:101D100092FF07C08695869586950E94B4090E9419
:101D2000750E08959091440392FB222720F92817FD
:101D300069F080FB92F99093440380914303909162
:101D400044030E94DA0E82E00E947B0E0895809187
:101D5000440382FB882780F991E089270E94920E34
:101D6000089581E00E94920E089580E00E94920EF4
:101D700008956FEF7FEF90E080E00E946B2D089553
:101D800090E080E00E94372D21E0863E9E4F09F0D2
:101D900020E0822F089582E090E00E94292D08958E
:101DA00083E090E00E94292D089584E090E00E9455
:101DB000372D0895BC0184E090E00E946B2D0895BA
:101DC000AB01BC018FE090E00E945F2D0895AB0154
:101DD000BC0183E190E00E945F2D089560E070E017
:101DE000CB010E94E70E089560E070E0CB010E94F5
:101DF000E00E0E94EE0E0895A8E0B0E0E2E0FFE001
:101E00000C944D2C66EE7EEF90E080E00E946B2DEE
:101E100060E082E090E00E944D2D81E090E09093A0
:101E200013028093120261E083E090E00E944D2D46
:101E300060E074E184E090E00E946B2D60E086E059
:101E400090E00E944D2D6FEF87E090E00E944D2DB5
:101E500040E050E0BA0188E090E00E945F2D60E031
:101E600084E290E00E944D2D60E087E190E00E94C6
:101E70004D2D60E08CE090E00E944D2D60E08DE003
:101E800090E00E944D2D19821A821B821C821D82B5
:101E90001E821F82188648E050E068E170E0CE01A3
:101EA00001960E943D2D40E050E0BA0180E290E0B2
:101EB0000E945F2D0E94F40E2896E2E00C94692C9B
:101EC0000E94FC0E0895682F8EE090E00E944D2D38
:101ED0000895A6E0B0E0EFE6FFE00C944B2C0E94E2
:101EE0009B248C018091AA029091AB0280179107EC
:101EF00081F019821A820E949B24682F49815A819D
:101F0000792F80E090E00E9479051093AB02009356
:101F1000AA022696E4E00C94672C0E94A724609302
:101F2000BA027093BB028093BC029093BD0260938F
:101F3000B6027093B7028093B8029093B9020895E5
:101F4000089508950E94A00F089508950E94A50F76
:101F5000089580E792E10E9416140E94A10F0E944A
:101F6000A20F089581E008950E94B20F08950E9483
:101F7000B20F0895089508950E94BA0F0E94BB0FF2
:101F800008950E948F120E944B050E94CE1D089555
:101F90000E9492240E946E130E94C10F0E94281C6E
:101FA0000E948C1A0E94A60F0895A6E0B0E0EBED07
:101FB000FFE00C94412C0E94B40F81110EC00E94CE
:101FC000690F0E94841B0E94CD1D0E94B9200E94AF
:101FD00060052696EEE00C945D2C0E9484132CEA9A
:101FE000822E22E0922E640110E0F601E190F19041
:101FF0006F01812F0E94B5121F5F153009F44BC08D
:10200000E816F90691F38091BE0281FD0E94BE128E
:102010000E94B70F782E10E066246394812F0E94EF
:10202000B5127C01F401A190B1904F018A159B0576
:1020300061F100E0CC24C394D12CAE24BF24C501AF
:102040008C219D21892BC1F07720B1F009831A835F
:102050000E949B249C838B836D8221E0C7018C218D
:102060009D21892B09F420E049815A816B817C8173
:102070008D81922F0E9479050F5FCC0CDD1C0F30F3
:10208000F1F6F4013297F182E0821F5F153031F6EC
:102090000E948D0F96CFE816F90609F0B4CF8FCFC6
:1020A0001F93CF93DF930E947F11EC01C11580E550
:1020B000D807F0F5C11580E4D80708F09CC0C03EF1
:1020C000D10520F5CD3CD10508F082C0C83AD10534
:1020D00078F4C53AD10508F073C0C130D10519F1C3
:1020E000209709F1C430D105F0F4D0E0C0E01BC066
:1020F000C33CD105D0F7C85AD0E0CC0FDD1FC95979
:10210000DE4F0990D881C02DD4640DC0C11580E286
:10211000D80708F0D1C0C11581E0D80708F05AC02F
:10212000C83ED10510F7CE01DF91CF911F910895E0
:10213000C03682E5D80718F5C03482E5D80708F024
:102140006BC0C03282E5D80708F05FC0C11582E5D8
:10215000D80708F497C02C2F2695269580E2289F53
:10216000900111248C2F8370C1E0D0E002C0CC0F0D
:10217000DD1F8A95E2F7C22BD32BDD68D4CFC03A9E
:1021800082E5D80760F4C03882E5D80708F459C062
:10219000CF71D0E0DC2FCC27C46FD06AC4CFC03C55
:1021A00082E5D80708F462C0C03E82E5D80708F08F
:1021B0009CCFDC2FCC27CC27DF71C06FD06AB3CF88
:1021C000C55AD0E0C356DE4FC881D0E0D064ABCF53
:1021D000D065A9CF8D2F0E942112182FCE019927EB
:1021E0000E947F11C12FD0E0DC2FCC27CC27DF71DC
:1021F000C82BD92B98CFCE0199270E947F11CC27CD
:10220000DF70C82BD92BD06A8ECFCF71D0E0DC2FF6
:10221000CC27C16FD06A87CF2C2F269526952770A3
:1022200080E2289F900111248C2F8370C1E0D0E0C0
:1022300002C0CC0FDD1F8A95E2F7C22BD32BDC68DE
:1022400072CF2C2F26952695277080E2289F90012B
:1022500011248C2F8370C1E0D0E002C0CC0FDD1FB1
:102260008A95E2F7C22BD32BDA685DCF8C2F8F7162
:102270000E942112C82FD0E0DC2FCC27CC27DF71A1
:10228000D06251CF8C2F8F710E94211255E0D695CC
:10229000C7955A95E1F7CF70D0E0DC2FCC27282FD7
:1022A00030E084FF05C044E0220F331F4A95E1F778
:1022B000C22BD32BD06937CF8D2F8F710E94211263
:1022C000182FCE0199270E947F11C12FD0E0DC2F5B
:1022D000CC27CC27DF71C82BD92BD2CF462F753016
:1022E00030F46F3020F4672F0E943004089590E09E
:1022F00080E008950E946E110E9450100895823867
:102300009105B9F1B0F48133910509F47DC048F429
:102310008932910509F46DC08A32910509F47BC0B8
:1023200008958533910509F45FC08933910509F15A
:102330000895833E9105D9F138F4803E910529F145
:10234000823E910579F10895863E9105D9F1873E47
:10235000910509F43EC0843E910541F52091440366
:1023600021FF24C08091430384FD19C087EE90E0D3
:10237000089520914303237009F05AC0209144032B
:1023800023FF14C089E290E008952091430320FDCB
:1023900038C03091440330FF09C024FF43C090E0AF
:1023A00080E008952091430322FDF7CF0895209106
:1023B000430322FD3AC03091440330FD39C024FF6D
:1023C000F5CFEDCF2091430323FFF0CF24FDE7CFDE
:1023D000CDCF2091430323FD2EC03091440331FF24
:1023E000EECF84EE90E008952091430325FFDECFE9
:1023F000C9CF2091430325FD21C02091440323FF31
:10240000D5CF89E390E0D2CF2091430326FFCECFF2
:102410008AE290E008952091430326FFC7CF81E32D
:1024200090E0089583EE90E0089582EE90E00895A4
:1024300080EE90E0089586EE90E0089585E390E0C8
:1024400008959091430392FF10C041E0282F24711A
:10245000243009F040E031E0282F2871283009F0BD
:1024600030E0431711F02CE0822793FF10C041E0C9
:10247000282F2471243109F040E031E0282F287101
:10248000283109F030E0431711F02CE08227309119
:10249000440330FF10C051E0282F2171213009F092
:1024A00050E041E0282F2871283009F040E054170F
:1024B00011F029E0822731FF10C041E0282F21715F
:1024C000213109F040E031E0282F2871283109F04E
:1024D00030E0431711F029E0822794FD877E0895AC
:1024E00080E008950E94B90E08950E9484132FEF92
:1024F00086E791E0215080409040E1F700C0000065
:102500000E94841380E00E94B51280FF04C00E94E4
:1025100072120E94E62408950E94751208950E9486
:10252000C00E811102C00E94600F0E94CB0E8093EA
:10253000BE020E94D50E90934403809343030E94F1
:102540008C120E94D00E90E00E94680980911002C7
:10255000909111020E948909089508950E94AD1278
:10256000089508950E94B1120895E82FF0E0EE0F4B
:10257000FF1FE15BFC4F808191810895089580EAFF
:102580008A95F1F7089500C008950E94BF1208953A
:10259000F894E82FE295EF70F0E031A1282F2F702A
:1025A00081E090E001C0880F2A95EAF7982F909576
:1025B000932391A392A1892B82A3789408950F93DA
:1025C0001F93CF93DF93CFEAD1E089918F3F11F032
:1025D0000E94C81281E0C43BD807B9F7C0EAD1E035
:1025E0000FEA11E089918F3F11F00E94C8120C1779
:1025F0001D07C1F7DF91CF911F910F910895AF9201
:10260000BF92DF92EF92FF920F931F93CF93DF93CE
:102610008C01D62EC62FD0E0CE0181559E4F7C0175
:10262000FC0120812F3F09F44CC0F894E22FE29581
:10263000EF70F0E031A12F7081E090E001C0880FD1
:102640002A95EAF7932F982B91A392A1809589233D
:1026500082A378940E94C312E0EAF1E041E050E0E6
:10266000B12CA12C21912F3FB1F1A22FA295AF70D7
:10267000B0E090968C9190E02F7002C09595879570
:102680002A95E2F780FD27C0CA01A82AB92A440F7B
:10269000551F81E0EF3AF80729F7F70180818F3F56
:1026A00011F00E94C81261E0A114B10409F460E0C5
:1026B0008D2D0E94C512CC0FDD1FC00FD11FB98216
:1026C000A882DF91CF911F910F91FF90EF90DF9043
:1026D000BF90AF90089590E080E0D7CF0E94DF12C6
:1026E0008AE0EFE4F3E0DF01982F1D929A95E9F775
:1026F000E5E4F3E0DF011D928A95E9F785E00E94A9
:10270000BF130E94AE120895AAE0B0E0EAE8F3E138
:102710000C944A2C8E010F5F1F4F8AE0F801119232
:102720008A95E9F7F12C6F2DC8010E94FF12F394EE
:10273000F5E0FF12F8CF4AE050E0B80185E493E0FD
:102740000E94132D21E0009709F420E0892B41F02D
:102750008AE0F801A5E4B3E001900D928A95E1F7D3
:1027600045E06FE473E085E493E00E94C013182F06
:102770000E94B212812F2A96E5E00C94662C0895EF
:10278000B0E0A0E0E6ECF3E10C94472C6C017B0197
:10279000042FC22F222379F081E08093C1020E948E
:1027A0009B249093C0028093BF0280E0CDB7DEB738
:1027B000E8E00C94632CD091C102DD23B1F3809149
:1027C000BF029091C0020E94B324059770F310E0FD
:1027D000000F111FA801B601C7010E94132D892BFC
:1027E00031F0A801B601C7010E94202DCD2F109213
:1027F000C1028C2FDBCF0E9476260E94C80F0E9458
:10280000832608950E9488260E94D50F0E94A22642
:1028100008950E9434240E945C260E94A90F0E9401
:10282000FB130E9402140E94BC0FFBCF9093E101A6
:102830008093E0010895EF92FF920F931F93CF933F
:10284000DF93EB01E82FD1110EC0442321F0F0E01B
:10285000E65BFA4FE4916E2F7E2F8E2FCDB7DEB759
:10286000E6E00C94652C0D2F10E0282F30E0442377
:1028700029F0265B3A4FF901249130E0F6E0CF9F32
:10288000C0011124EFEFF0E0BF010E94BC2BAB01AF
:102890008C2F90E0880F991FA5E5A49FB001A59FFC
:1028A000700D1124861B970B982F990F980FBF015D
:1028B000601B710B629FD001639FB00D729FB00DC2
:1028C00011248B2F9D9FB0011124672F7727EF01D3
:1028D000C61BD70BBE01629FE001639FD00D729FA4
:1028E000D00D11247F01E91AF108E09EB001E19EAC
:1028F000700DF09E700D1124672F7727E61BF70BE4
:10290000E29F8001E39F100DF29F100D1124E12F33
:10291000722F4230510599F048F44115510569F084
:102920004130510581F0EB2F8D2F07C04430510508
:1029300069F080F046305105B1F76E2F8FCFE22F4E
:102940007B2F812FFACFE22F7D2FF7CFEB2F822F16
:10295000712FF3CF7B2F822FED2FEFCF41E00E941D
:102960001B14089508950E94AE140895CF93DF9329
:10297000762FE901682F842F0E94B314798368832E
:102980008A83DF91CF91089580915903982F9C7F7E
:1029900029F4837084608093590308958C3AE8F396
:1029A0008370886AF8CFB0E0A0E0E9EDF4E10C9420
:1029B000472C88E090E00E94312D6B017C0184E27D
:1029C00090E00E94292D282F30E040E050E060E0A8
:1029D00070E080E090E000E20E94742CB22FA32F00
:1029E000F42FE52FD62FC72F97018601BC29A12BE5
:1029F000FE295E2F532B2B2F3A2F4F2F6D2F7C2F1D
:102A0000CDB7DEB7E8E00C94632CB0E0A0E0EBE0DB
:102A1000F5E10C94432C49015A016B017C010E94A1
:102A2000C4148401A4016A2D7B2D88E090E00E94EB
:102A30005F2D94014A2D5B2DB601C70100E20E9473
:102A40008F2C622F84E290E00E944D2DCDB7DEB72F
:102A5000ECE00C945F2CE9E5F3E085E080831182E3
:102A60008FEF828383831482758125E030E04FEFFE
:102A70005FEF60E0868197810E940515089580913F
:102A8000590380FF03C086958695089580E00895D8
:102A900090915D03933018F49F5F90935D038823BA
:102AA00091F02091590330915A0340915B0350916A
:102AB0005C0360915D0370915E0380915F03909170
:102AC00060030E940515089581E00E94481508954D
:102AD00090915D03992319F0915090935D038823A1
:102AE00091F02091590330915A0340915B0350912A
:102AF0005C0360915D0370915E0380915F03909130
:102B000060030E940515089581E00E9468150895EC
:102B100070E00E94DF1D089560910C0180915903BF
:102B200080FF0BC080910B0123E0829FC001112424
:102B30008F599C4F0E948815089580910D019091A6
:102B40000E0123E0829FF0011124EF59FC4F8917F9
:102B500048F71182108212828F5F3396F8CF9091DE
:102B6000590390FF0EC090910D0120910E0133E0AA
:102B7000939FF0011124EF59FC4F921718F00E9417
:102B80008C1508958183608342839F5F3396F5CFD0
:102B9000A3E0B0E0EEECF5E10C944D2C90915903DC
:102BA00090FF0AC09E012F5F3F4F0E94B6144B81D9
:102BB00069818A810E94AF152396E2E00C94692C0A
:102BC000CF93DF93EC01EC81F0E0EB5BFB4F4491A2
:102BD000E9E5F3E0628181810E94C8158C818F5FF5
:102BE0008C83DF91CF910895CF93DF93EC01E9E5DA
:102BF000F3E0438162818C810E94C8158C818F5FD4
:102C00008C83DF91CF910895A3E0B0E0EAE0F6E194
:102C10000C944B2C8C018091C20281110AC09E0140
:102C20002F5F3F4F4FEF6FEF0E94B6148A81809362
:102C3000C202F8016481613069F08091C20240E013
:102C4000662361F040E0623011F44091C20280E0FE
:102C500060E004C06091C20240E080E00E94AF15D5
:102C6000F801848190E0019663E070E00E94D02B2F
:102C700084832396E4E00C94672CA3E0B0E0E3E4C3
:102C8000F6E10C94462C082FD62EF42EC22E9091ED
:102C9000590390FF2FC0E92FE695E695AE2FB0E0DF
:102CA000AC54BE4F8C9180931E039C7F943031F5C1
:102CB0009E012F5F3F4F802F0E94B6144B81698188
:102CC0008A810E94AF1500935A03D0925B03F09261
:102CD0005C03CC2079F02091590360915D037091E1
:102CE0005E03302F4D2D5F2D80915F039091600327
:102CF0000E9405152396E9E00C94622C823019F4A9
:102D0000F0905C03E0CF863019F400915A03DBCFDA
:102D10008930D9F38931B9F6E9516E2F6170B62E39
:102D2000E695F0E0EB5BFA4F1491E12C60910F0116
:102D3000E61618F00E948C15C6CFE19EC001112442
:102D400070E00E94BC2B802FB11014C0860F209120
:102D50000D01622F6E0D7727771F9B01220F331F06
:102D6000260F371F2F593C4F4F2D6D2D0E94B61443
:102D7000E394DCCF861BEBCFE9E5F3E09181282FCC
:102D80004381628188E0890F0E943D16089581E0A9
:102D90000E94BC160895E9E5F3E09181282F438154
:102DA000628188EF890F0E943D16089581E00E949C
:102DB000CB160895E9E5F3E0628128E0620F08F49C
:102DC0006FEF282F438181810E943D16089581E095
:102DD0000E94DA160895E9E5F3E0628128E0621BBB
:102DE00008F460E0282F438181810E943D160895F8
:102DF00081E00E94EB160895E9E5F3E0438128E0C5
:102E0000420F08F44FEF282F628181810E943D1606
:102E1000089581E00E94FC160895E9E5F3E04381FE
:102E200028E0421B08F440E0282F628181810E9443
:102E30003D16089581E00E940D17089520E00E943C
:102E40003D160895EF92FF921F93CF93DF93EC010D
:102E500010E0EE24EA94F12C60910F01161770F047
:102E60000E948C159A818C8190FF27C08F5F8C8384
:102E7000DF91CF911F91FF90EF90089520910D0168
:102E8000422F410F5527551FCA019A01220F331FA8
:102E9000280F391F2F593C4F70E0C7010E94D02BDB
:102EA000962F8C8140915C0360915B03199F800D8C
:102EB00011240E94B6141F5FCFCF8150D8CFB0E04D
:102EC000A0E0E5E6F7E10C94462CFC0182810FEFCF
:102ED00080FF01E010E080910F01181798F00E9428
:102EE0008C158091C402013009F04CC0811102C0E0
:102EF00080910F0181508093C402CDB7DEB7E9E025
:102F00000C94622CC0910D01C12ED12CCC0DDD2D65
:102F1000D11DCE01880F991FC80FD91FCF59DC4F83
:102F2000198218821A8234E0E32EF12CB12C8091A0
:102F3000C4028B0D813104F18F70082E000C990BA7
:102F4000C816D90691F480915C038E9DA0018F9DD7
:102F5000500D112455954795559547959E016091C3
:102F60005B0380915A030E94B614B00EF1E0EF1A91
:102F7000F108E9F61F5FAFCF87FFDFCF90910F0118
:102F8000890FDBCF90E0019660910F0170E00E9405
:102F9000D02BB1CF0F931F93CF93DF9380910D016F
:102FA00090910E0123E0829FF0011124EF59FC4F14
:102FB000891740F1C0E0D3E060910F01C61740F1DE
:102FC0000E948C15209109018091C302820F809389
:102FD000C30290910A01920F90930A01191654F4BA
:102FE000082E000C990B40910F014150550B84178E
:102FF00095071CF0219520930901DF91CF911F9136
:103000000F9108951182108212828F5F3396D0CF74
:103010000C2F10E070E0C8010E94D02B20910D0110
:10302000820F482F50E02091C302022E000C330B78
:1030300002171307BCF020910A01022E000C330B7B
:10304000201731077CF08D9F900111242F593C4FA0
:1030500040915C0360915B0380915A030E94B61417
:10306000CF5FAACFFA01EE0FFF1FE40FF51FEF5954
:10307000FC4F118210821282F3CFB0E0A0E0E3E4B3
:10308000F8E10C94432CEC014C81042F10E09801E2
:10309000D8010E94142C9B01AC010E942A2C4B01E8
:1030A0005C01E0E2F0E0E01BF10BA5E5B0E0AC0173
:1030B0009B010E942A2C6B017C019F01DF010E9471
:1030C0000C2C9B01AC010E94352C9B01AC01280DFE
:1030D000391D4A1D5B1DC701B6010E94E42BF22E6B
:1030E000822F90E039E23F1520F143E0249F9001C8
:1030F000112435952795122F109500E085E5E82ECF
:10310000EF1880910F01081718F10E948C159C810F
:1031100081E0992319F0903219F48FEF8093080120
:1031200080910801890F8C83CDB7DEB7ECE00C9459
:103130005F2C25E530E0B901681B790B9B01220F5C
:10314000331F260F371F37FFD4CF2F5F3F4FD1CF0D
:103150008E2D01FD8F2D20910D01622F600F77279D
:10316000771F9B01220F331F260F371F2F593C4F0C
:10317000412F60915B030E94B6140F5FC2CF0F9383
:103180001F93CF93DF93EC0110E000E090910F01CB
:103190009017110609F06CF40E948C158C8190E058
:1031A0000196817099278C83DF91CF911F910F91A8
:1031B000089520910D01A801420F511D9A01220F7F
:1031C000331F240F351F2F593C4F4C8160915B03F7
:1031D00080915A0396959017110651F04CF04423B4
:1031E00049F040915C030E94B6140F5F1F4FCECF91
:1031F0004423B9F340E0F7CFB0E0A0E0E2E0F9E12A
:103200000C943F2CFC016280448081E08483E5E4DF
:10321000F4E07490E4ECF4E0E491C0915C03C695B2
:10322000C158D0E0CC0FDD1FCD2FDD27812C75E0FC
:10323000972EAA24AA94B12C55245A94E719EE2E5D
:10324000F12C80910F01881638F00E948C15CDB7B3
:10325000DEB7E0E10C945B2CC82CD12C82E0861503
:1032600068F09C9CF0019D9CF00D1124EB53FD4FE8
:1032700080915A03808380915B038183411023C036
:103280009C9CF0019D9CF00D1124EB53FD4F13828B
:10329000128220910D01C601820F911D9C01220F07
:1032A000331F280F391F2F593C4F9C9CF0019D9CC8
:1032B000F00D1124EB53FD4F4281618180810E940A
:1032C000B6148394BECF9C9C80019D9C100D11244C
:1032D0000B531D4FF80183818823F1F081508383C4
:1032E000859DC0011124648170E00E94BC2BFB010C
:1032F000FF27EB5BFB4F8491E82FE719E59DC001A9
:103300001124B7010E94BC2B80915C03689FB0011F
:103310001124F8017283BDCF0E94F62CB5010E94E2
:10332000D02B8C179D070CF0B4CFF2E0F61598F473
:103330000E94F62CB5010E94D02BF80180830E94D8
:10334000F62C20915B032695622F70E00E94D02B13
:10335000280FF80121839C9CF0019D9CF00D112405
:10336000EB53FD4F128280915C03893C58F088EC4E
:103370009C9CF0019D9CF00D1124EB53FD4F848328
:10338000838387CF8431A0F784E1F2CFE9E5F3E0CE
:1033900020812E7F20833181428153816481758118
:1033A000868197810E94051510921F030E948C153B
:1033B0000895E9E5F3E080818E7F808310921F03FA
:1033C0000E948C15089510921F0380911C03811197
:1033D0000AC081E080931C0380915903817080931F
:1033E0001B030E94D919089560915903669566954B
:1033F00070E04BE050E080E191E00E94062D892BC7
:1034000019F481E080931F030E949B24909316037C
:103410008093150308959091590390FF34C09370E1
:10342000811132C0946090935903662391F02091EA
:10343000590330915A0340915B0350915C036091B2
:103440005D0370915E0380915F03909160030E9421
:103450000515609159036695669570E04BE050E064
:1034600080E191E00E94062D892BB1F010921F039C
:1034700081E08093180340915C0360915B0380912D
:103480005A030E941E1708958B3210F0986ACBCF12
:10349000880F880F982BC7CF0E94F419E9CF682FA7
:1034A000909159039695969581E0890F8B3208F09B
:1034B00081E00E940B1A089581E00E944F1A08953E
:1034C000682F90915903969596958FEF890F09F47F
:1034D0008AE20E940B1A089581E00E94601A089502
:1034E00061E00E940B1A0895E9E5F3E080818160B4
:1034F0008083869586950E94701A0895809159035D
:1035000080FF03C00E94C61908950E94741A08958E
:1035100060E00E940B1A089580911D0381113FC045
:103520000E94C00E811104C00E94600F0E942B15E2
:103530000E94D3142093590330935A0340935B03A2
:1035400050935C0360935D0370935E0380935F030D
:10355000909360032C7FA1F40E942B150E94D3143A
:103560002093590330935A0340935B0350935C03B9
:1035700060935D0370935E0380935F039093600399
:103580000E94C41410921F038091590380FF04C04D
:10359000869586950E94881A81E080931D03089580
:1035A000E9E5F3E0808181608083869586950E94BD
:1035B000881A089510921C0380911B0381110E94A8
:1035C000D01A0E94F41908950F931F93CF93DF939D
:1035D00080911F038823C1F180911E03E09159035C
:1035E000E695E695E81BE0931703823091F5F0E04D
:1035F000EF5BFB4FE491CE2FD0E000EE15E1809120
:103600001803882361F0109218030E949B24909362
:1036100016038093150310921A03109219030E9447
:103620009B24E0911503F09116038E1B9F0B8F3F97
:103630009F4750F4EC0FFD1FF0931603E093150322
:1036400085E193E0F8010995DF91CF911F910F91EA
:103650000895863049F4F0E0E25CFB4FE491CE2F10
:10366000D0E004EF15E1CBCF893051F4E695F0E0DE
:10367000E55CFB4FE491CE2FD0E002E217E1BFCF33
:103680008F3051F4E695F0E0E85CFB4FE491CE2FEB
:10369000D0E00FE517E1B3CF853149F4F0E0EB5C02
:1036A000FB4FE491CE2FD0E00AEC17E1A8CFC8E29F
:1036B000D0E00DE318E1883109F4A1CF833239F469
:1036C000E3E3F4E0C591D49104E016E198CFC4EFB0
:1036D000D1E00FEB18E1843209F491CFC0EDD7E0CF
:1036E00002EB14E1853209F08ACF8E2F63E00E944D
:1036F000B02BE92FF0E0E05DFB4FE491CE2FD0E05E
:103700000CEF18E17CCF08950E94E41A0895FA01A5
:10371000811101C0FB0109950895CF93DF93C82F54
:10372000D62F0E943F158C1748F00E943F158D1729
:1037300028F40E945C1ADF91CF9108958C2F0E948B
:10374000701AF9CF1F93CF93DF93EC01FB01158122
:10375000111110C00E94970D8272FE01E052F847CD
:10376000E531F10508F05EC0E255F24D0C94062CEF
:103770000E947E1A812FDF91CF911F9108954CE610
:103780005AE16CE57AE10E94871BF4CF4CE55AE1DF
:103790006CE67AE1F8CF46ED56E167EC76E1F3CFDF
:1037A00047EC56E166ED76E1EECF48EF56E167EE85
:1037B00076E1E9CF47EE56E168EF76E1E4CF4AE102
:1037C00057E169E077E1DFCF49E057E16AE177E16E
:1037D000DACF44E855E164E675E1D5CF44E655E13A
:1037E00064E875E1D0CF81E00E94701AC3CF65E034
:1037F00082E00E948D1BBECF68E086E0FACF6EE0CB
:1038000089E0F7CF64E18FE0F4CF67E185E1F1CFA4
:1038100088E1EACF62E289E1ECCF83E2E5CF6AE2B8
:1038200085E2E7CF11E0A6CF86E090E00E94292D47
:103830000895682F86E090E00E944D2D0895E1E9FB
:10384000F3E080818470896280830E94191C08954E
:103850000E94C00E811104C00E94600F0E941F1CB4
:103860000E94141C80939103803320F0877088623B
:103870008093910390919103892F817090FF04C0F0
:10388000892F8695869586950E942C1D0895809196
:103890009103982F969596959695953040F49F5F55
:1038A000990F990F990F8770892B809391038091BD
:1038B00091038160809391030E94191C8091910370
:1038C0008695869586950E942C1D0895809191037A
:1038D000982F987F79F0885080939103887F91E0AA
:1038E00009F490E08091910390FB80F9809391031B
:1038F0000E94191C809191038695869586950E9459
:103900002C1D08958091910380FD13C081608093E8
:103910009103813019F489E08093910380919103A0
:103920000E94191C809191038695869586950E9428
:103930002C1D08958091910380FF08C08E7F809395
:1039400091030E94191C80E00E942C1D0895809113
:10395000910380FF03C00E949A1C08950E94821C5C
:10396000089590919103892F8695869586958F5F0E
:103970008F7197708630E0F4880F880F880F892B3D
:103980008093910380919103887F91E009F490E006
:103990008091910390FB80F9809391030E94191C00
:1039A000809191038695869586950E942C1D089599
:1039B00090939103E7CF863008F085E090919103D2
:1039C0009770282F220F220F220F922B9093910392
:1039D000987F21E009F420E09091910320FB90F979
:1039E000909391030E942C1D08950E94DB1C8091EE
:1039F00091030E94191C08959C01FB018581882375
:103A000049F12230F8E73F07F9F040F42115E8E7E3
:103A10003E0769F02130384779F00895243098E75F
:103A2000390779F058F02530384789F0089585E056
:103A30000E94F51C80E0089580E0FACF0E94661C89
:103A4000F9CF0E94471CF6CF0E94A71CF3CF0E941B
:103A5000B11CF0CF81E008958F929F92AF92BF92F8
:103A6000EF92FF920F931F93CF93DF938630B0F5C1
:103A7000811135C0909180009F7D90938000A0912E
:103A80008600B0918700282F30E00E94142C25E09A
:103A900030E040E050E00E94E42B89019A018091DF
:103AA0008600909187006CE070E00E94BC2B60174C
:103AB0007107C8F0C80169E070E00E94BC2B7093E8
:103AC0008B0060938A00DF91CF911F910F91FF903F
:103AD000EF90BF90AF909F908F90089585E0909168
:103AE00080009062CACF8091860090918700E0901C
:103AF0008600F0908700E0918600F0918700C6E094
:103B0000D0E0BE010E94BC2B060F171F211D311DE6
:103B10004801590185E0880C991CAA1CBB1C8A9598
:103B2000D1F7C701BE010E94BC2B9F0150E040E0CD
:103B3000260F371F411D511DC501B4010E94E42B02
:103B400049015A01E0918600F0918700CA01B9014C
:103B50000E94A02B9B01AC01DF010E942A2C9B013B
:103B6000AC01C501B4010E94A02B2FE0969587956A
:103B7000779567952A95D1F7009186001091870077
:103B800030E020E0061717072807390708F097CF1D
:103B9000609186007091870092CF0895269A2E98A2
:103BA00082E28093800089E1809381008FEF9FEF14
:103BB00090938700809386000E94281C08956A9A3B
:103BC0004EB14B7F5EB15460EFB7F8949B01220F6A
:103BD000331F260F371F280F391F2817390741F4C5
:103BE000EFBF8FE594E00197F1F700C00000089562
:103BF000DC016D91CD0178E05EB9000000C067FF87
:103C00004EB9660F000000C000C000C04EB900C031
:103C10007A9591F7E2CFCF93DF93EB0186319C4702
:103C200011F50E94970D9D81992399F08A7A91E070
:103C300009F490E090932003811109C089E20E9469
:103C400080230E944B0E80E0DF91CF91089585E3A1
:103C5000F6CF80912003811104C089E20E9497234E
:103C6000F0CF85E3FBCF81E0EFCFCF93DF93EC0183
:103C7000FB018581882309F4D2C09E01305723328D
:103C8000310508F0B2C00E94D50E90934403809392
:103C90004303FE01E150F047E232F10520F4ED5319
:103CA000F24D0C94062C8091430381608093430372
:103CB00093C0809144038860809344038DC08091B9
:103CC00043038260F3CF809143038460EFCF809100
:103CD00043038860EBCF809144038160EDCF8091F6
:103CE00044038260E9CF809143038061DFCF8091FC
:103CF00043038062DBCF809143038064D7CF0E946F
:103D00001B09809143038068D1CF809143038C606D
:103D1000CDCF809144038360CFCF809143038E7FCA
:103D2000C5CF80914403877FC7CF809143038D7FA8
:103D3000BDCF809143038B7FB9CF80914303877FB1
:103D4000B5CF809144038E7FB7CF809144038D7FA0
:103D5000B3CF809143038F7EA9CF809143038F7DA2
:103D6000A5CF809143038F7BA1CF0E941B09809137
:103D700043038F779BCF80914303837F97CF8091BD
:103D800044038C7F99CF8091430382FB992790F95C
:103D900021E0922790FB82F990FB83F987CF8091F5
:103DA0004403982F909591708E7F892B90FB81F919
:103DB00083CF90914303892F8F7B96FF806476CFCA
:103DC0000E941B0990914303892F97FB87F9805824
:103DD0006DCF81E00E94630F809143039091440373
:103DE0000E94DA0E0E941B0980E0DF91CF910895B6
:103DF00080E0F0CF90914303892F8F7E94FF806104
:103E000055CF90914303892F8E7F90FF81604ECFD5
:103E100090914403892F877F93FF88604DCF81E085
:103E2000E4CF282F35EB2303C001112497FF04C0F2
:103E300080589109892F089580589F4FFBCF80911A
:103E4000270380FF0DC06091200170E0660F771F8F
:103E50006038710570F56115710569F1862F089557
:103E600081FF07C06091200184E0689FB0011124A8
:103E7000EFCF6091200182FD0AC080912603882344
:103E8000A9F020911F0160912001821710F088E0B5
:103E9000ECCF869FC001112433E0880F991F3A951B
:103EA000E1F7622F70E00E94D02BD2CF68E070E083
:103EB000D5CF8FE7089581E008958091270380FF93
:103EC0000CC060911C0170E07595679575956795BC
:103ED0006115710549F1862F089581FF06C0609133
:103EE0001C0170E075956795F3CF60911C0182FD10
:103EF0000BC0909125039923A1F060911B01809143
:103F00001C01961738F0682F70E06038710500F3D7
:103F10008FE70895899FC001112470E00E94D02B83
:103F2000F4CF61E070E0D7CF81E0089590912A034B
:103F300020912B03922B20912D03922B20912C0367
:103F4000922B31F098E09093260391E09093250313
:103F50008D3C31F40E941F1F819580932B0308959F
:103F60008E3C19F40E941F1FF8CF8F3C31F40E9441
:103F70001F1F819580932A030895803D19F40E94A4
:103F80001F1FF8CF893D29F40E945D1F80932C03E9
:103F900008958A3D21F40E945D1F8195F7CF8B3DE6
:103FA00031F40E945D1F819580932D0308958C3D0F
:103FB00019F40E945D1FF8CF9FE2980F983070F4BB
:103FC000815D990B21E030E001C0220F8A95EAF76C
:103FD00080912903822B8093290308958D3D31F42C
:103FE0008091270381608093270308958E3D21F4FB
:103FF000809127038260F7CF8F3DB9F78091270327
:104000008460F1CF40912A038D3C59F480912B03B9
:1040100087FF0DC010922B0341110BC01092260395
:1040200008C08E3C81F480912B0318169CF3442326
:1040300081F080912C0390912D03892B09F05AC0B7
:104040001092250308958F3C49F447FFF0CF10925A
:104050002A0380912B038111ECCFE0CF803D19F42E
:104060001416ACF3E4CF90912C03893D29F4191672
:10407000F4F610922C03DBCF8A3D19F497FFD7CFCB
:10408000F8CF90912D038B3D29F497FFD0CF10925C
:104090002D03CDCF8C3D19F41916CCF3C8CF9FE278
:1040A000980F983090F4815D990B21E030E0B901D0
:1040B00002C0660F771F8A95E2F7CB018095909139
:1040C0002903892380932903B2CF8D3D31F4809158
:1040D00027038E7F80932703AACF8E3D21F4809102
:1040E00027038D7FF7CF8F3D09F0A1CF8091270364
:1040F0008B7FF0CF08950E949B249C0190912A030E
:1041000080912B03982B21F03093240320932303D9
:1041100090912C0380912D03982B21F03093220352
:104120002093210388E293E00E947D22089586E097
:10413000E8E2F3E0DF011D928A95E9F71092260389
:1041400010922503109227030895FC0182818111AA
:104150000EC0838181110BC08481811108C091E060
:104160008581811101C090E0892F8170089581E0DF
:10417000FCCFA6E0B0E0EFEBF0E20C944C2C86E034
:10418000E8E2F3E0DE01119601900D928A95E1F7E5
:1041900010922A0310922B0310922C0310922D03DD
:1041A0008B819C81892B89F080912303909124033A
:1041B0000E94B324AC01909126039923C9F1809108
:1041C00021018417150608F440C08D819E81892B3A
:1041D00091F080912103909122030E94B324AC01BD
:1041E00090912503992309F46AC080911D018417D9
:1041F000150608F472C0BE016F5F7F4F88E293E03E
:104200000E94C823811105C088E293E00E94A52086
:1042100081110E947B2086E0FE013196A8E2B3E086
:1042200001900D928A95E1F72696E3E00C94682CB4
:10423000209122018AE0289F90011124241735073C
:1042400020F69F5F9093260302C09F3FD1F71B810A
:10425000112359F00E941F1F9FEF11160CF491E0DB
:10426000899F802D112480932A031C81112359F0EA
:104270000E941F1F9FEF11160CF491E0899F802D63
:10428000112480932B0380912A03882309F49DCF66
:1042900010912B03112309F498CF0E94111F88233A
:1042A00051F080932A03812F0E94111F882329F047
:1042B00080932B038ACF81E0F4CF81E0F9CF209166
:1042C0001E018AE0289F900111242417350708F069
:1042D00092CF9F5F9093250302C09F3FD1F71D812E
:1042E000112359F00E945D1F9FEF11160CF491E00D
:1042F000899F802D112480932C031E81112359F056
:104300000E945D1F9FEF11160CF491E0899F802D94
:10431000112480932D0380912C03882309F46BCF03
:1043200010912D03112309F466CF0E94111F8823D9
:1043300051F080932C03812F0E94111F882329F0B4
:1043400080932D0358CF81E0F4CF81E0F9CF0F9314
:104350001F93CF93DF93C42FD22FFC018581882335
:10436000C9F0409330030E949B2490932F038093C5
:104370002E0380E28C0F883040F4C77081E001C0CA
:10438000880FCA95EAF70E94C506DF91CF911F9169
:104390000F91089510913003141332C080912E03B1
:1043A00090912F030E94B324883C910548F5C0E208
:1043B000CD0F1D17B9F080E2810F883040F41770DF
:1043C00081E001C0880F1A95EAF70E94CC06C83038
:1043D00048F481E09D2F977001C0880F9A95EAF705
:1043E0000E94C506802F0E94BC06C83070F6D770A8
:1043F00081E001C0880FDA95EAF70E94CC06C5CFAC
:1044000080E28C0F883008F6C77081E001C0880F09
:10441000CA95EAF7F2CF0F93DB0188519C478730AA
:104420009105A0F5FC01EB51F24D0C94062C06E22F
:1044300021EE41EE6AE17CE7CD010E94A72180E0F8
:104440000F91089507E225EE45EE6BE17CE7F4CF8E
:1044500006E221EE40EE68E17CE7EECF07E225EED2
:1044600044EE69E17CE7E8CF06E221EE42EE6CE142
:104470007CE7E2CF07E225EE46EE6DE17CE7DCCF9C
:1044800008E221E045EE6EE17CE7D6CF15968C91EF
:10449000882319F010923003D3CF81E0D1CF9093CD
:1044A0003603809335030895E0913503F091360388
:1044B000309729F00190F081E02D0995089580E072
:1044C00008950E9454220895E0913503F091360337
:1044D000309721F00280F381E02D09950895E09155
:1044E0003503F0913603309739F026E0DC012C9348
:1044F0000480F581E02D09950895E0913503F09150
:104500003603309739F022E0DC012C930680F781E6
:10451000E02D09950895A3E0B0E0E1E9F2E20C9402
:104520004D2C209133033091340328173907A1F023
:104530009093340380933303E0913503F091360375
:10454000309751F023E029839B838A830084F1858F
:10455000E02DCE01019609952396E2E00C94692C9A
:10456000A3E0B0E0E6EBF2E20C944D2C2091310395
:104570003091320328173907A1F0909332038093CA
:104580003103E0913503F0913603309751F024E088
:1045900029839B838A830084F185E02DCE010196D7
:1045A00009952396E2E00C94692C20910601309144
:1045B00007012E5F3F4F80912D01882379F0809174
:1045C000430387FF0BC020910401309105012E5F4A
:1045D0003F4F9EE180E0915018F4089596E0FACFA5
:1045E000F90141919F014423B1F38F5FF4CF8823F8
:1045F00021F190912D01992311F19091430397FF9F
:104600001EC0E82FE695E695E695EE31B0F42091D0
:10461000040130910501E20FF32FF11D228130E0FA
:10462000877041E050E002C0440F551F8A95E2F7C1
:104630002423352381E0232B91F480E008952091F9
:10464000060130910701F9013296285F3F4F9191A1
:10465000981721F0E217F307D1F7EFCF81E0089523
:104660009C01FC0132969FEF80E04191461751F08A
:104670009F3F19F4411101C0982F8F5F8630A9F731
:104680009F3F09F40895290F311D97FD3A95F901CF
:1046900062830895FC01329608962191261303C087
:1046A000DF0111971C92E817F907B9F70895E62F73
:1046B000E695E695E695EE3168F4E80FF92FF11DE1
:1046C000677021E030E001C0220F6A95EAF782812D
:1046D000822B82830895E62FE695E695E695EE31E6
:1046E00070F4E80FF92FF11D677021E030E001C090
:1046F000220F6A95EAF72095828128232283089564
:10470000682F80912D01882359F08091430387FF02
:1047100007C080910401909105010E9457230895DC
:1047200080910601909107010E9430230895682F1F
:1047300080912D01882359F08091430387FF07C0A2
:1047400080910401909105010E946B23089580914E
:104750000601909107010E944A23089580912D013E
:10476000882379F08091430387FF0BC0E091040117
:10477000F091050132968EE1DF011D928A95E9F7ED
:104780000895E0910601F0910701329686E0F4CF9A
:10479000DC01FB0111969C9111978181981322C035
:1047A00012968C911297882319F0928189131AC05E
:1047B00013968C911397882319F09381891312C053
:1047C00015968C911597882319F0958189130AC045
:1047D00014969C91992321F081E02481291303C030
:1047E00080E001C081E08170089508950E94F52362
:1047F0000895811106C081E0809337030E94F6235B
:10480000089582E0F9CF83E0809337030E94F62376
:1048100008950E94F923089581E0809337030E9450
:10482000F62308950E940C240895089508950E9487
:1048300016240895089508950E9415240895CF938D
:104840000E941A240E9484130E941B24C0E08C2F13
:104850000E94B512892B31F4CF5FC530C1F780E0DB
:10486000CF91089581E0FCCF85B7806885BF85B77B
:10487000806885BF08951F921FB61F9211248F93E1
:104880009F93AF93BF9380913803811113C08091A0
:10489000920390919303A0919403B0919503419654
:1048A000A11DB11D8093920390939303A093940351
:1048B000B0939503BF91AF919F918F911F901FBEB1
:1048C0001F90189580919A03843031F10E94200541
:1048D0001092380388E190E020E40FB6F894A89590
:1048E000809360000FBE2093600083B7817F846057
:1048F00083BF83B7816083BF7894889583B78E7FA9
:1049000083BF0FB6F894A89580916000886180936A
:104910006000109260000FBE08950E941B090E9463
:104920002A05089582E084BD93E095BD9AEF97BD76
:1049300080936E0008952FB7F89480919203909120
:104940009303A0919403B09195032FBF08952FB7BF
:10495000F8946091920370919303809194039091E5
:1049600095032FBF08959C014FB7F894809192034F
:1049700090919303A0919403B09195034FBF821B34
:10498000930B089578941F921FB61F9211248F9352
:104990009F93AF93BF938091920390919303A091C3
:1049A0009403B09195030196A11DB11D80939203CC
:1049B00090939303A0939403B0939503BF91AF9109
:1049C0009F918F911F901FBE1F90189581E080933B
:1049D000E00080E28093D8001092C9008FE19EE44D
:1049E0000197F1F700C0000087E090EBDC018093B5
:1049F000A3039093A403A093A503B093A60388E117
:104A00009CE00FB6F894A895809360000FBE909339
:104A10006000FFCF88E19CE00FB6F894A8958093E2
:104A200060000FBE90936000FFCF80914103089516
:104A30009B01BA0190919A039430E9F48F708093AE
:104A4000E9009FEF8091E800915085FD06C085ED5B
:104A50008A95F1F700009111F5CF8091E80085FF6C
:104A60000AC050E040E0C9010E9419278091E80087
:104A70008E778093E800089543E050E0BC0182E027
:104A80000E941825089546E050E0BC0182E00E9493
:104A90001825089540E250E0BC0182E00E941825EC
:104AA0000895CF93DF93EC0148E050E0BC0181E032
:104AB0000E94182588E0FE01A9E3B3E001900D9261
:104AC0008A95E1F7DF91CF91089580919903811143
:104AD00009C00E94A9280E9406298091E2008460F2
:104AE0008093E20008951092990308950E940C2487
:104AF00008956091960381E0611101C080E00E94F9
:104B00000324089590919A0381E0943009F080E0A5
:104B1000609196030E940924089542E061EC81E0CF
:104B20000E94252842E261EC82E00E9425289091B3
:104B30009A0381E0943009F080E0609196030E942E
:104B4000F923089580919C03833009F461C030F407
:104B50008130D1F1823009F49EC008958A3009F481
:104B60008AC08B3009F46FC0893009F050C0809141
:104B70009B03813209F04BC080919F039091A00369
:104B8000029708F044C08091E800877F8093E80096
:104B90008091E80082FF37C09091F3008091F2008D
:104BA000029731F48091F100813011F0863021F4C8
:104BB0008091F100809341038091E8008B7780938E
:104BC000E8000E94592823C080919B03813AF9F4A0
:104BD0008091E800877F8093E80080919F03909107
:104BE000A003892B61F468E089E393E070E00E9400
:104BF00068278091E8008B778093E800089560E053
:104C000090E080E0F3CF80919A038111C1CF0895A5
:104C100080919B03813AD9F780919F039091A003E3
:104C2000892BA9F78091E800877F8093E800809125
:104C3000E80080FFFCCF80912D018093F1008091EE
:104C4000E8008E77BCCF80919B03813201F7809181
:104C50009F039091A003892BD1F68091E800877F74
:104C60008093E8000E94592880919D0380932D0134
:104C70000E941B09089580919B03813241F6809127
:104C8000E800877F8093E8000E94592880919E0366
:104C900080934203089580919B03813A09F0B7CF36
:104CA0008091E800877F8093E8008091E80080FF92
:104CB000FCCF80914203C1CF84B7877F84BF0FB6FA
:104CC000F894A895809160008861809360001092AC
:104CD00060000FBE80E890E00FB6F894809361000A
:104CE000909361000FBE0E94122408950E94A9288B
:104CF0000E940629E2EEF0E080818460808378944F
:104D00000E94852B089583E291E00E944F2208952E
:104D100080919A03853031F480919A03853019F09F
:104D20000E948D2408950E94622480919803882314
:104D300099F30E941F24882379F30E9403270E947D
:104D40001B09EACF08959A014091A1035091A20353
:104D50000E94AB260895492F55274330510519F17C
:104D600068F44130510509F444C04230510509F45A
:104D700045C090E080E050E040E025C04132510560
:104D800049F142325105A9F784E490E04FE657E03B
:104D900061157105C1F086EB90E049EB56E061309A
:104DA000710589F0E6CF99278130910581F0009750
:104DB00029F00297F1F6EAE4F6E002C0E8E6F6E050
:104DC000849190E0AF01F901518340830895E6E5B5
:104DD000F6E0F6CF89E090E04EE756E06115710508
:104DE00091F389E090E047E956E06130710559F3AD
:104DF000C0CF82E190E047EA56E0E5CF8BE390E058
:104E00004CE656E0E0CF80E189BD82E189BD09B47E
:104E100000FEFDCF8091D8008F7D8093D8008091D7
:104E2000E00082608093E0008091E00081FDFCCF93
:104E30000895AF92BF92CF92DF92FF920F931F938C
:104E4000CF93DF936C01EB018A010E947828F82E42
:104E5000811123C00115110539F0F801808191817C
:104E6000C81BD90BC80ED91EB12CA12C2097A9F0B4
:104E70008091E80085FD22C08091E8008E778093C4
:104E8000E80001151105A1F0F80180819181A80EBB
:104E9000B91EB182A08285E0F82E8F2DDF91CF91CF
:104EA0001F910F91FF90DF90CF90BF90AF9008952A
:104EB0000E9478288823D1F2F82EEFCFF601819155
:104EC0006F018093F1002197FFEFAF1ABF0ACECF99
:104ED000FC018091A1039091A20386179707A0F08F
:104EE0006115710529F49091E8009E779093E80090
:104EF00090E06115710551F4911108C08091E800AE
:104F000082FF34C080E00895BC01F2CF80919A0303
:104F10008823C1F18530C1F18091E80083FD30C064
:104F20008091E80082FDEACF8091E80080FFE1CF28
:104F30008091F3002091F200382F6115710519F06E
:104F40002830310558F091E02830310509F090E023
:104F50002091E8002E772093E800CBCF81918093B9
:104F6000F100615071092F5F3F4FE7CF80919A03A5
:104F7000882341F0853041F08091E80083FFBECF67
:104F800081E0089582E0089583E00895FC01809116
:104F9000A1039091A20386179707A0F061157105F0
:104FA00029F48091E8008E778093E80090E0611505
:104FB000710551F4911108C08091E80082FF35C05D
:104FC00080E00895BC01F2CF80919A038823C9F153
:104FD0008530C9F18091E80083FD31C08091E800FF
:104FE00082FDEACF8091E80080FFE1CF8091F3005D
:104FF0002091F200382F6115710519F02830310524
:1050000058F091E02830310509F090E08091E800F7
:105010008E778093E800CBCF84918093F100319616
:10502000615071092F5F3F4FE6CF80919A0388232B
:1050300041F0853041F08091E80083FFBDCF81E0F1
:10504000089582E0089583E00895982F973028F01E
:105050008F708093E90081E008959093E900242FF8
:10506000762F50E0981731F07091EC002091ED0010
:105070005091F00021FD02C09F5FE8CF3091EB001E
:105080003E7F3093EB003091ED003D7F3093ED009B
:105090003091EB0031603093EB007093EC00209383
:1050A000ED005093F0002091EE0027FDE5CF80E069
:1050B000089580919B0387FF13C08091E80082FFD1
:1050C00006C08091E8008B778093E80004C080914F
:1050D0009A038111F2CF089580919A038823D9F31E
:1050E0008091E80080FFF8CF8091E8008E77ECCFC8
:1050F0002091E4003091E50095E6A9012091EC00B3
:10510000822F817020FF06C08091E80080FF06C0DA
:1051100080E008952091E80022FD1AC080919A0352
:10512000882389F0853089F08091EB0085FD0FC0E0
:105130002091E4003091E50042175307F9F29150B5
:10514000E1F684E0089582E0089583E0089581E027
:1051500008950E9418290E942029E0EEF0E0808145
:1051600081608083E8EDF0E080818F77808319BCD7
:10517000A7EDB0E08C918E7F8C9380818F7E8083B1
:105180001092990308950F931F93CF93DF930E947A
:1051900018290E942029C8EDD0E088818F77888364
:1051A00088818068888388818F7D888319BC10926C
:1051B0009A0310929603109298031092970300EEB0
:1051C00010E0F80180818B7F8083888181608883F3
:1051D00042E060E080E00E942528E1EEF0E080817E
:1051E0008E7F8083E2EEF0E0808181608083808129
:1051F00088608083F80180818E7F808388818061D0
:105200008883DF91CF911F910F910895E8EDF0E031
:1052100080818F7E8083E7EDF0E0808181608083F4
:1052200084E082BF81E0809399030E94C32808959F
:10523000E8EDF0E080818E7F80831092E200089597
:105240001092DA001092E10008951F920F920FB6AB
:105250000F9211242F933F934F935F936F937F93FC
:105260008F939F93AF93BF93EF93FF938091E10050
:1052700082FF0BC08091E20082FF07C08091E100B5
:105280008B7F8093E1000E94842B8091DA0080FF65
:1052900019C08091D80080FF15C08091DA008E7F00
:1052A0008093DA008091D90080FF96C080E189BDAB
:1052B00082E189BD09B400FEFDCF81E080939A03AD
:1052C0000E9465258091E10080FF19C08091E20075
:1052D00080FF15C08091E2008E7F8093E200809174
:1052E000E20080618093E2008091D8008062809328
:1052F000D80019BC85E080939A030E94792580919B
:10530000E10084FF2BC08091E20084FF27C080E190
:1053100089BD82E189BD89B5982F917080FFFBCF4F
:105320008091D8008F7D8093D8008091E1008F7E9E
:105330008093E1008091E2008F7E8093E200809173
:10534000E20081608093E20080919603882309F453
:1053500049C084E080939A030E9482258091E100F5
:1053600083FF29C08091E20083FF25C08091E10086
:10537000877F8093E10082E080939A0310929603E6
:105380008091E1008E7F8093E1008091E2008E7F2A
:105390008093E2008091E20080618093E20042E02D
:1053A00060E080E00E9425288091F0008860809372
:1053B000F0000E947625FF91EF91BF91AF919F91F0
:1053C0008F917F916F915F914F913F912F910F90AE
:1053D0000FBE0F901F90189519BC10929A030E944F
:1053E000732570CF8091E30087FD93E090939A033B
:1053F000B3CF1F920F920FB60F9211242F933F93AA
:105400004F935F936F937F938F939F93AF93BF93CC
:10541000CF93DF93EF93FF93D091E900DF708091FA
:10542000EC00C82FC17080FDC0E81092E9008091A7
:10543000F000877F8093F00078940E943D2A1092BC
:10544000E9008091F00088608093F000CD2BCF7050
:10545000C093E900FF91EF91DF91CF91BF91AF91A0
:105460009F918F917F916F915F914F913F912F917C
:105470000F900FBE0F901F901895AAE2B0E0E3E4E2
:10548000FAE20C944C2C8BE993E02091F100FC01A2
:105490002193CF01F3E0833A9F07B9F70E94A22539
:1054A0008091E80083FF1EC180919B0390919C0333
:1054B0009A3008F017C1E92FF0E0E451F24D0C9456
:1054C000062C803899F0823809F00CC180919F0336
:1054D0008F70873008F006C18093E9008091EB005F
:1054E00085FB882780F91092E90006C08091970318
:1054F00090919803911182609091E800977F90932A
:10550000E8008093F1001092F1008091E8008E771E
:10551000E5C0882309F4D3C0823009F0E3C080914C
:105520009D038111D6C080919F038F702FEF280FAC
:10553000263008F0D7C08093E9002091EB0020FFCF
:10554000C8C0933031F48091EB0080628093EB000F
:10555000C0C09091EB0090619093EB0021E030E0AF
:1055600001C0220F8A95EAF72093EA001092EA0020
:105570008091EB008860EACF8111B4C010919D0347
:105580001F778091E3008078812B8093E3008091E6
:10559000E800877F8093E8000E9459288091E80006
:1055A00080FFFCCF8091E30080688093E30082E07D
:1055B000111183E080939A0395C08058823008F0DF
:1055C00091C080919D0390919E038C3D23E09207B2
:1055D000A1F583E08A838AE289834FB7F894DE01DC
:1055E000139620E03EE051E2E32FF0E050935700A5
:1055F000E49120FF03C0E295EF703F5FEF708E2FC4
:1056000090E0EA30C0F0C7968D939D932F5F2431D0
:1056100059F74FBF8091E800877F8093E8006AE2E6
:1056200070E0CE0101960E9468278091E8008B7798
:105630008093E80057C0C096E7CF60919F037091B8
:10564000A003AE014F5F5F4F0E94A326BC01892BD0
:1056500009F448C09091E800977F9093E800898111
:105660009A810E94C627E1CF8038E1F58091E80059
:10567000877F8093E800809196038093F10045CF67
:10568000811130C090919D03923060F58091E800C7
:10569000877F8093E800909396030E945928809119
:1056A0009603882311F084E005C08091E30087FD14
:1056B000FACF81E080939A030E948D2513C08091D8
:1056C0009D03813079F481E0933009F080E080938C
:1056D00098031092E9008091E800877F8093E800AA
:1056E0000E9459288091E80083FF0AC08091E80059
:1056F000877F8093E8008091EB0080628093EB00CD
:10570000AA96E3E00C94682C0895CF9380919A03B5
:105710008823A1F0C091E900CF709091EC00892F0F
:10572000817090FD80E8C82B1092E9008091E8001C
:1057300083FD0E943D2ACF70C093E900CF91089568
:10574000DB018F939F930E942A2CBF91AF91A29F60
:10575000800D911DA39F900DB29F900D112408956F
:10576000991B79E004C0991F961708F0961B881FB3
:105770007A95C9F780950895AA1BBB1B51E107C014
:10578000AA1FBB1FA617B70710F0A61BB70B881FD1
:10579000991F5A95A9F780959095BC01CD01089560
:1057A00097FB072E16F4009407D077FD09D00E94CE
:1057B000BC2B07FC05D03EF4909581959F4F089532
:1057C000709561957F4F0895A1E21A2EAA1BBB1B0D
:1057D000FD010DC0AA1FBB1FEE1FFF1FA217B307BD
:1057E000E407F50720F0A21BB30BE40BF50B661FD3
:1057F000771F881F991F1A9469F760957095809597
:1058000090959B01AC01BD01CF010895EE0FFF1FE4
:105810000590F491E02D09940E94142C332312F486
:105820008A1B9B0B0C94252CA29FB001B39FC00137
:10583000A39F700D811D1124911DB29F700D811DBC
:105840001124911D08950E94142CB7FF0895821B06
:10585000930B08950E94142CA59F900DB49F900D5A
:10586000A49F800D911D11240895B7FF0C942A2C3C
:105870000E942A2C821B930B08952F923F924F92E5
:105880005F926F927F928F929F92AF92BF92CF92D0
:10589000DF92EF92FF920F931F93CF93DF93CDB7D9
:1058A000DEB7CA1BDB0B0FB6F894DEBF0FBECDBF51
:1058B00009942A88398848885F846E847D848C8422
:1058C0009B84AA84B984C884DF80EE80FD800C812B
:1058D0001B81AA81B981CE0FD11D0FB6F894DEBF0E
:1058E0000FBECDBFED010895002E083090F0982F27
:1058F000872F762F652F542F432F322F22270850C2
:10590000F4CF220F331F441F551F661F771F881FB8
:10591000991F0A95B2F7002D089597FD1094002E57
:10592000083098F00850232F342F452F562F672F1B
:10593000782F892F912DF4CF15949795879577958A
:10594000679557954795379527950A95AAF7112496
:10595000002D08958F929F92AF92BF92CF92DF92C7
:10596000EF92FF92CF93DF93EC01688179818A8176
:105970009B81611571058105910521F464E279ED42
:105980008BE597E02DE133EF41E050E00E94812D5F
:1059900049015A019B01AC01A7EAB1E40E942A2CFB
:1059A0006B017C01ACEEB4EFA50194010E94382C90
:1059B000DC01CB018C0D9D1DAE1DBF1DB7FF03C0CB
:1059C0000197A109B04888839983AA83BB839F77F5
:1059D000DF91CF91FF90EF90DF90CF90BF90AF908D
:1059E0009F908F9008950E94AA2C089580E091E0E6
:1059F0000E94AA2C0895B0E0A0E08093000190934B
:105A00000101A0930201B09303010895FC014150EC
:105A1000504030F001900616D1F73197CF0108952C
:105A2000882799270895FB01DC0104C08D9101901E
:105A3000801921F441505040C8F7881B990B0895F4
:105A4000FB01DC0102C001900D9241505040D8F79B
:105A50000895F999FECF92BD81BDF89A992780B536
:105A60000895A6E1B0E044E050E00C94732DA8E165
:105A7000B0E042E050E00C94732DDC01A40FB51FA0
:105A80004150504048F0CB01840F951F2E910E9449
:105A90004E2D41505040D0F70895262FF999FECF52
:105AA00092BD81BDF89A019700B4021639F01FBA71
:105AB00020BD0FB6F894FA9AF99A0FBE089503968E
:105AC000272F0E944E2D0E944D2D252F0E944E2DD6
:105AD000242F0C944E2D0196272F0E944E2D0C94AE
